:020000040800F2
:1000000000900020391E00085D0800085F08000805
:1000100000000000000000000000000000000000E0
:10002000000000000000000000000000610800085F
:1000300000000000000000006308000865080008D8
:10004000891E0008891E0008891E0008891E0008F4
:10005000891E0008891E0008891E0008891E0008E4
:10006000891E0008891E0008891E0008891E0008D4
:10007000891E0008891E0008891E0008891E0008C4
:10008000891E0008891E0008891E0008891E0008B4
:10009000891E0008891E0008891E0008891E0008A4
:1000A000891E0008891E0008891E0008891E000894
:0C00B000891E0008891E0008891E000837
:1000BC0010B5064C2378002B07D1054B002B02D032
:1000CC00044800E000BF0123237010BD4C08002041
:1000DC0000000000D0280008044B10B5002B03D002
:1000EC000349044800E000BF10BDC04600000000FA
:1000FC0050080020D0280008002243088B4274D3FB
:10010C0003098B425FD3030A8B4244D3030B8B420C
:10011C0028D3030C8B420DD3FF22090212BA030C15
:10012C008B4202D31212090265D0030B8B4219D3F6
:10013C0000E0090AC30B8B4201D3CB03C01A524116
:10014C00830B8B4201D38B03C01A5241430B8B425E
:10015C0001D34B03C01A5241030B8B4201D30B0347
:10016C00C01A5241C30A8B4201D3CB02C01A52416E
:10017C00830A8B4201D38B02C01A5241430A8B4231
:10018C0001D34B02C01A5241030A8B4201D30B021A
:10019C00C01A5241CDD2C3098B4201D3CB01C01A34
:1001AC00524183098B4201D38B01C01A524143093E
:1001BC008B4201D34B01C01A524103098B4201D32C
:1001CC000B01C01A5241C3088B4201D3CB00C01A99
:1001DC00524183088B4201D38B00C01A5241430811
:1001EC008B4201D34B00C01A5241411A00D2014636
:1001FC00524110467047FFE701B5002000F0F0F8BF
:10020C0002BDC0460029F7D076E7704703460B4382
:10021C007FD4002243088B4274D303098B425FD3F3
:10022C00030A8B4244D3030B8B4228D3030C8B421F
:10023C000DD3FF22090212BA030C8B4202D3121205
:10024C00090265D0030B8B4219D300E0090AC30BDA
:10025C008B4201D3CB03C01A5241830B8B4201D387
:10026C008B03C01A5241430B8B4201D34B03C01A70
:10027C005241030B8B4201D30B03C01A5241C30AE8
:10028C008B4201D3CB02C01A5241830A8B4201D359
:10029C008B02C01A5241430A8B4201D34B02C01A43
:1002AC005241030A8B4201D30B02C01A5241CDD2E8
:1002BC00C3098B4201D3CB01C01A524183098B4233
:1002CC0001D38B01C01A524143098B4201D34B011C
:1002DC00C01A524103098B4201D30B01C01A52417F
:1002EC00C3088B4201D3CB00C01A524183088B4206
:1002FC0001D38B00C01A524143088B4201D34B00EF
:10030C00C01A5241411A00D2014652411046704760
:10031C005DE0CA0F00D04942031000D34042534065
:10032C0000229C4603098B422DD3030A8B4212D325
:10033C00FC22890112BA030A8B420CD38901921157
:10034C008B4208D3890192118B4204D389013AD094
:10035C00921100E08909C3098B4201D3CB01C01A69
:10036C00524183098B4201D38B01C01A524143097C
:10037C008B4201D34B01C01A524103098B4201D36A
:10038C000B01C01A5241C3088B4201D3CB00C01AD7
:10039C00524183088B4201D38B00C01A5241D9D2EF
:1003AC0043088B4201D34B00C01A5241411A00D270
:1003BC000146634652415B10104601D34042002B6C
:1003CC0000D54942704763465B1000D3404201B5EB
:1003DC00002000F005F802BD0029F8D016E77047A0
:1003EC007047C046002B11D1002A0FD1002900D133
:1003FC00002802D00021C943081C07B4024802A1FE
:10040C004018029003BDC046D9FFFFFF03B46846F5
:10041C0001B5029800F006F8019B9E4602B00CBC98
:10042C007047C046F0B557464E464546DE46E0B5E9
:10043C0004000D009246994683B08B4230D82DD0E3
:10044C004946504600F0BAF829000600200000F09A
:10045C00B5F8331A9846203B9B4633D45A4653463C
:10046C00934042461F00534693401E00AF423AD879
:10047C00AF4200D178E05B46A41BBD41002B00DAF3
:10048C0075E0002200230092019301235A46934009
:10049C000193012342469340009328E08242CFD936
:1004AC0000220023009201930C9B002B01D01C60B6
:1004BC005D600098019903B0F0BCBB46B246A946FA
:1004CC00A046F0BD424620239B1A5246DA404146D4
:1004DC0013004A468A40170042461F435346934036
:1004EC001E00AF42C4D90022002300920193434660
:1004FC00002BD9D0FB0772081A4346467B080EE046
:10050C00AB4201D1A2420CD8A41A9D41012024195E
:10051C006D410021013E24184D41002E06D0AB4206
:10052C00EED9013E24196D41002EF8D100980199A5
:10053C005B4600196941002B24DB2B005A464446CC
:10054C00D3402A00E2401C005B461500002B2ADB3E
:10055C0026009E40330026004746BE403200801ADB
:10056C009941009001919FE7A342BCD883E7424692
:10057C00202300219B1A0022009101920122DA40D3
:10058C00019286E7424620239B1A2A0046469A404F
:10059C002300F340444613432A00E2401C005B4610
:1005AC001500002BD4DA42462F002023260097405A
:1005BC009B1ADE403B003343CDE7C04610B5002903
:1005CC0003D100F007F8203002E0081C00F002F81C
:1005DC0010BDC0461C2101231B04984201D3000C02
:1005EC0010391B0A984201D3000A08391B0998429A
:1005FC0001D30009043902A2105C40187047C046B0
:10060C0004030202010101010000000000000000CF
:10061C00F0B58BB01422002105A801F01DFF194B79
:10062C00596B042211435963596B0A400192019A88
:10063C005A6B202632435A635A6B32400292029A0A
:10064C005A6B01252A435A635A6B2A400392039A28
:10065C005A6B022422435A635B6B23400493049B22
:10066C00A027FF0500222021380000F0D3FA0596C0
:10067C00069500230793089405A9380000F00CFA9E
:10068C000BB0F0BD0010024010B51448144B0360C1
:10069C00144B4360002383600122C26003614361F9
:1006AC008361C361036200F0BBFA00280CD1002106
:1006BC000A4800F01BFB002809D10021074800F074
:1006CC0041FB002806D110BD00F044F8EFE700F024
:1006DC0041F8F2E700F03EF8F5E7C046A00800202C
:1006EC00005400405B3D300010B588B0040014226B
:1006FC00002103A801F0B0FE2268134B9A4201D0EE
:10070C0008B010BD114C626B02231A436263626B1A
:10071C0013400193019BC0239B000393122304936A
:10072C00113B0593002306930633079303A908484E
:10073C0000F0B2F9E26B802189030A43E263E36BB8
:10074C000B400293029BDBE7005400400010024078
:10075C000004005072B6FEE700B5A1B038220021AB
:10076C0012A801F079FE102200210EA801F074FEEF
:10077C003422002101A801F06FFE8020800000F0DF
:10078C000BFB02231293FE33159300231693402286
:10079C001792199312A800F029FB002817D10723F0
:1007AC000E9300230F931093119300210EA800F0C9
:1007BC00D9FD00280DD12223019300230393059327
:1007CC0001A800F0AFFE002805D121B000BDFFF755
:1007DC00C1FFFFF7BFFFFFF7BDFF000010B500F032
:1007EC00DDF8FFF7B9FFFFF713FFFFF74DFF00F040
:1007FC003FF8024800F004F8FEE7C046A0080020CD
:10080C0010B504000C2001F05DFB04600023436074
:10081C0003724372837210BD00B583B00B4B196C1D
:10082C00012211431964196C0A400092009ADA6B88
:10083C00802149050A43DA63DB6B0B400193019B72
:10084C00C020C00000F0D0F803B000BD0010024082
:10085C00FEE7FEE77047704710B500F0B3F810BD27
:10086C00024B802212059A607047C04600ED00E0F2
:10087C0010B51948194B0360E1235B024360002358
:10088C008360C36003610C2242618361C3610362B4
:10089C004362836201F0F0F9002811D100210E4867
:1008AC0001F076FA00280ED100210B4801F096FADF
:1008BC0000280BD1084801F04BFA002809D110BDD3
:1008CC00FFF748FFEAE7FFF745FFEDE7FFF742FFC9
:1008DC00F0E7FFF73FFFF2E7EC0800200044004090
:1008EC0010B588B004001422002103A801F0B4FD57
:1008FC002268124B9A4201D008B010BD104BD96B34
:10090C00802080020143D963DA6B02400192019A84
:10091C00596B0122114359635B6B13400293029B89
:10092C000C2303930A3B049305920023069307922E
:10093C00A02003A9C00500F0AFF8DDE7004400409B
:10094C000010024010B50400114B1978002901D198
:10095C00012010BDFA208000FFF7CEFB01000D4BEB
:10096C001868FFF7C9FB00F07BF800280DD1032CA9
:10097C0001D90120EDE7013000222100404200F0B6
:10098C003FF8054B1C600020E3E70120E1E7C0467F
:10099C0004000020000000200800002010B5084AC8
:1009AC00116880235B000B4313600020FFF7CAFF24
:1009BC00041E02D00124200010BDFFF72DFFFAE722
:1009CC0000200240034B1B78034A11685B1813602C
:1009DC007047C046040000207C090020014B1868B9
:1009EC007047C0467C090020034A136803490B403A
:1009FC00034313607047C04600000140FFF9FFFF3E
:100A0C0070B5002811DB8308134EC0339B009D5931
:100A1C0003242040C000FF2214008440A543890118
:100A2C000A4082402A439A5170BD0F230340083B71
:100A3C009B0806339B00094A944663445C68032276
:100A4C001040C000FC3215008540AC4389010A40BF
:100A5C00824022435A60E7E700E100E000ED00E04D
:100A6C00013880235B0498420FD2094A5060094830
:100A7C00036A1B021B0AC02109060B4303620023F5
:100A8C00936007331360002070470120FCE7C046D9
:100A9C0010E000E000ED00E0F0B5CE46474680B532
:100AAC00002336E0032600E00026A64034003C4339
:100ABC00544E1832920094518022B458EA432600C6
:100ACC00AE434F68FF0301D52C4326004D4C8027C5
:100ADC00E6518426A459260016404F68BF0301D561
:100AEC002C432600474C8427E651246826001640E8
:100AFC004F68FF0201D52C432600424C26606468E7
:100B0C0022404E68B60201D52A0022433D4C626059
:100B1C0001330C682200DA406FD001229A40250084
:100B2C0015401442F4D04C68661E012E03D9112CCA
:100B3C0001D0122C12D184685F000326BE40B4434E
:100B4C002600CC68BC4034438460446894434A68B3
:100B5C001609012232409A4022434260C4685F0069
:100B6C000326BE40F2439446B44326008C68BC4036
:100B7C003443C4604A68022A01D0122A10D1DE081C
:100B8C000836B2009146145807221A4092000F26DC
:100B9C009640B4430E699640320022434C46225094
:100BAC0004686246144003224E683240BA40224325
:100BBC0002604A68D200ABD59A0814001834A4001D
:100BCC00104EA75903241C40E4000F26A640B7433F
:100BDC00A026F605B04200D166E70B4EB04208D015
:100BEC000A4EB04207D00A4EB04200D15AE7052651
:100BFC005BE7012659E7022657E7C0BCB946B04669
:100C0C00F0BDC0460018024000040050000800501F
:100C1C00000C0050002A01D0816170478162FCE712
:100C2C0010B5041E59D04123C35C002B43D0412383
:100C3C002422E2542268136801218B43136022683A
:100C4C00274B61680B4013612268936825490B4060
:100C5C009360E368012B34D0226884231B02A168C3
:100C6C000B439360E368022B32D0226851681E4B11
:100C7C000B4353602268D3681A490B40D360236935
:100C8C0062691343A269120221681343CB60226884
:100C9C00E369216A0B4313602268136801210B433B
:100CAC0013600023636441221F31A154236301327A
:100CBC00A354002010BD40330022C254FFF714FD92
:100CCC00B5E7226880231B02A1680B439360C9E738
:100CDC002368802212015A60C7E70120EAE7C04668
:100CEC00FFFFFFF0FF7FFFFF00800002F0B5412304
:100CFC00C35C202B20D12033C35C012B1ED040249D
:100D0C000122025541252423435506683368934339
:100D1C003360066833680A4F3B40336006683368BB
:100D2C001943316001680B6813430B602023435552
:100D3C00002303550020F0BD0220FCE70220FAE757
:100D4C00FFEFFFFFF0B54123C35C202B1ED12033F6
:100D5C00C35C012B1CD040240122025541252423C5
:100D6C004355066833689343336006683368094F0C
:100D7C003B4009021943316001680B6813430B6057
:100D8C0020234355002303550020F0BD0220FCE72F
:100D9C000220FAE7FFF0FFFF10B5104A1368104964
:100DAC000B400343136080239B00984201D000202A
:100DBC0010BD0C4B1B685800C01840000A49FFF7C7
:100DCC009BF90130054B5B695B0503D5002803D00B
:100DDC000138F7E70020EBE70320E9E7007000405B
:100DEC00FFF9FFFF0000002040420F0070B582B0F9
:100DFC00041E00D134E20368DB0739D5C14A91687F
:100E0C0038230B40D16803220A40102B26D0082B24
:100E1C0026D063688022520293427FD0A022D20255
:100E2C00934200D181E0B74B1A68B7490A401A6067
:100E3C001A68B6490A401A606368002B00D180E03A
:100E4C00FFF7CCFD0500AF4B1B689B0310D4FFF7DD
:100E5C00C5FD401B6428F6D9032002E2032AD6D133
:100E6C00A84B1B689B0303D56368002B00D1FAE1E8
:100E7C0023689B0731D5A34A936838210B40D1686E
:100E8C0003220A40102B6AD0002B6BD19D4A1268AA
:100E9C00520503D5E268002A00D1E6E19948426880
:100EAC009B490A40616909020A434260002B0DD13B
:100EBC00036898490B4021690B4303600368DB0A04
:100ECC0007221A40944BD340944A1360944B1868F1
:100EDC00FFF738FD002800D0C9E123681B0700D4B8
:100EEC0081E0884B9A6838231340182B73D0A36980
:100EFC00002B00D1B4E0834A136E01210B4313661F
:100F0C00FFF76CFD05007F4B1B6E9B076BD4FFF747
:100F1C0065FD401B0228F6D90320A2E1794A11682D
:100F2C0080235B020B43136086E7764B19688022A3
:100F3C00D2020A431A601968802252020A431A60CC
:100F4C007AE7FFF74BFD05006E4B1B689B038FD5B3
:100F5C00FFF744FD401B6428F6D9032081E1022AE7
:100F6C0092D193E7E368002B22D0664A1368694953
:100F7C000B4021690B431360116880235B000B430A
:100F8C001360FFF72BFD05005E4B1B685B0506D459
:100F9C00FFF724FD401B0228F6D9032061E15949D3
:100FAC004B685B4A13406269120213434B6094E72F
:100FBC00544A13685B490B401360FFF70FFD0500A3
:100FCC00504B1B685B0588D5FFF708FD401B0228BA
:100FDC00F6D9032045E14B4B1B6E9B0703D5A36948
:100FEC00002B00D145E123685B0700D4A2E0454B00
:100FFC009A6838231340202B45D0424BDB6BDB0027
:10100C004AD4404AD16B802040050143D163D36B55
:10101C0003400193019B0125434B1B68DB053DD528
:10102C00A368012B4ED0052B52D0364BDA6D012123
:10103C008A43DA65DA6D03318A43DA65A368002BDB
:10104C0050D0FFF7CBFC06002E4BDB6D9B076FD40B
:10105C00FFF7C4FC801B354B9842F5D9032000E107
:10106C00284A136E01218B431366FFF7B7FC05006A
:10107C00244B1B6E9B07B6D5FFF7B0FC401B022818
:10108C00F6D90320EDE01F4BDB6D9B0752D5A3680F
:10109C00002B4FD10120E4E00025BDE7224A116866
:1010AC0080235B000B431360FFF798FC06001E4B7C
:1010BC001B68DB05B4D4FFF791FC801B0228F6D922
:1010CC000320CEE00F4AD36D01210B43D365B5E766
:1010DC000C4BDA6D04210A43DA65DA6D03390A43E5
:1010EC00DA65ABE7FFF77AFC0600064BDB6D9B0776
:1010FC001ED5FFF773FC801B0C4B9842F5D90320CF
:10110C00AFE0C04600100240FFFFFEFFFFFFFBFFF9
:10111C00FF80FFFFFFC7FFFF0024F400000000204A
:10112C0008000020FFFEFFFF007000408813000045
:10113C00012D26D0E369002B00D19CE0564A916822
:10114C0038220A40102A63D0022B20D0524B1A6846
:10115C0052490A401A60DA6803218A43DA60DA6875
:10116C004F490A40DA60FFF739FC04004A4B1B6810
:10117C009B014BD5FFF732FC001B0228F6D903204C
:10118C006FE0454AD36B47490B40D363D2E7424AE1
:10119C00136842490B401360FFF720FC05003E4BDF
:1011AC001B689B0106D5FFF719FC401B0228F6D9DA
:1011BC00032056E0384AD3683B491940236A606AD9
:1011CC000343A06A00020343E06A0343206B03431A
:1011DC00606B03430B43D360116880235B040B43A8
:1011EC001360D16880235B050B43D360FFF7F6FBDC
:1011FC000400294B1B689B0106D4FFF7EFFB001B77
:10120C000228F6D903202CE000202AE0002028E058
:10121C00012B32D0204BDA6803231340216A8B4216
:10122C002DD170231340616A8B422AD1FE21C90152
:10123C001140A36A1B02994225D1F8239B0313404A
:10124C00E16A8B4221D1E0231B051340216B8B42B9
:10125C001DD1520F5207636B9A421AD1002000E045
:10126C00012002B070BD0120FBE70120F9E701204D
:10127C00F7E70120F5E70020F3E70120F1E7012073
:10128C00EFE70120EDE70120EBE70120E9E7012082
:10129C00E7E70120E5E7C04600100240FFFFFFFE34
:1012AC00FFFFFEEEFFFFFFEF8C80C11110B52A4B44
:1012BC009B6838221A4207D1274B1A68D20A072397
:1012CC0013402648D84010BD234B9A68382313404E
:1012DC00082B3BD0204B9A6838231340102B0DD091
:1012EC001D4B9A6838231340202B31D01A4B9A6827
:1012FC0038231340182B26D00020E4E7164AD16877
:10130C000D3B0B40D2681209072111400131032B10
:10131C000FD01248FEF7F0FE0F4BDA68120A7F234B
:10132C00134058430C4BD968490F0131FEF7E4FECA
:10133C00C9E70B48FEF7E0FE074BDA68120A7F2379
:10134C0013405843EEE7FA20C001BCE70448BAE763
:10135C0080200002B7E7C046001002400024F400D1
:10136C0000127A0070B504000D00002800D1AAE02C
:10137C00574B1A68072313408B4221D323689A07D3
:10138C000ED55B0705D5534A9168E023DB010B436F
:10139C009360504A936850490B40A1680B4393608B
:1013AC002368DB0754D56368012B20D0022B3BD07C
:1013BC00002B3FD1474A126852051CD401206AE029
:1013CC00434A136807218B432B431360FFF706FB3B
:1013DC0006003F4B1A6807231340AB42CED0FFF7F1
:1013EC00FDFA801B3D4A9042F3D9032053E0394A61
:1013FC001268920369D537498A68072082431343E0
:10140C008B60FFF7EBFA0600324B9B6838221A40D0
:10141C006368DB009A421BD0FFF7E0FA801B2F4B6E
:10142C009842F1D9032036E02A4A12689201E2D49C
:10143C00012030E0032B05D0264AD26D9207DAD476
:10144C00012028E0234A126E9207D4D4012022E016
:10145C001F4B1A6807231340AB421DD823685B0748
:10146C0006D51C4A93681E490B40E1680B439360F8
:10147C00FFF71CFF174B9A68120A0F2313409B00AF
:10148C00184A9A581F231340D840174B1860174B13
:10149C001868FFF757FA70BD0D4A136807218B4384
:1014AC002B431360FFF79AFA0600094B1A680723BF
:1014BC001340AB42D2D0FFF791FA801B074B9842F6
:1014CC00F3D90320E7E70120E5E70120E3E7C04675
:1014DC000020024000100240FFF0FFFF88130000C4
:1014EC00FF8FFFFFF02800080000002008000020FC
:1014FC00014B18687047C0460000002010B5FFF77C
:10150C00F7FF064B9A68120B072313409B00044A03
:10151C009A581F231340D84010BDC04600100240FB
:10152C0030290008F0B583B0040003689B0362D532
:10153C00814BDB6BDB001ED47F4AD16B80204005D6
:10154C000143D163D36B03400193019B01267B4A7A
:10155C00116880235B000B431360FFF73FFA050013
:10156C00764B1B68DB0508D4FFF738FA401B0228C2
:10157C00F6D9032502E00026E9E70025002D23D14A
:10158C006D4BD96DC02292000B001340114210D04C
:10159C00226B9A420DD0684AD36D69490B40D06DCD
:1015AC00802149020143D165D16D66480140D16566
:1015BC00D365DB0710D4002D06D15F4AD36D60498B
:1015CC000B40216B0B43D365012E15D15A4AD36BBB
:1015DC005D490B40D3630FE0FFF700FA0700564B51
:1015EC00DB6D9B07E7D4FFF7F9F9C01B574B98420B
:1015FC00F5D90325DFE700252368DB0706D54E4A1E
:10160C00536D03218B4361680B43536523689B0720
:10161C0006D5494A536D0C218B43A1680B43536586
:10162C002368DB0606D5444A536D49490B40E168F3
:10163C000B43536523689B0506D53F4A536D4549BB
:10164C000B40A1690B43536523685B0506D53A4AE9
:10165C00536D41490B40E1690B43536523689B066D
:10166C0006D5354A536D3D490B4021690B435365F3
:10167C0023685B040BD5304A536D9B009B08216A91
:10168C000B4353658023DB05226A9A4239D02368C9
:10169C001B0306D5284A536D40218B43616A0B43CB
:1016AC00536523689B020BD5234A536D2C490B4081
:1016BC00A16A0B4353658023DB03A26A9A4227D0AD
:1016CC0023685B020BD51C4A536D26490B40E16A1B
:1016DC000B43536580235B04E26A9A421FD0236854
:1016EC001B050BD5144A536D1F490B4061690B4305
:1016FC00536562698023DB019A4215D0280003B040
:10170C00F0BD0D4AD16880235B020B43D360BEE76A
:10171C00094AD16880235B040B43D360D0E7064AA7
:10172C00D1680B43D360DAE7034AD16880235B02AC
:10173C000B43D360E2E7C04600100240007000404B
:10174C00FFFCFFFFFFFFFEFFFFFFFFEF8813000012
:10175C00FFF3FFFFFFFFF3FFFFFFCFFFFFCFFFFF05
:10176C00FFFFBFFFFFFFFFFEFF3FFFFFF8B50400C9
:10177C00016883680269134342691343C2691343C6
:10178C00426E1A430B68AB48034013430B6022684C
:10179C005368A9490B40E1680B435360A169226867
:1017AC00A64B9A4201D0236A19439368A44803407C
:1017BC000B4393602268D36A0F218B43616A0B43FE
:1017CC00D36222689F4B9A420ED09F4B9A4248D0CC
:1017DC009E4B9A4200D17BE09D4B9A427AD0974B1C
:1017EC009A424FD010230BE09A4B596D03230B40B8
:1017FC00022B5FD031D8002B5ED0012B5ED103338E
:10180C008E498A4270D0E06980221202904200D147
:10181C00B4E0042B00D100E100D9E8E0002B00D1AA
:10182C00F4E0022B00D0E0E08B48636A5B008B4A4B
:10183C00995AFEF761FC63685B08C0186168FEF793
:10184C005BFC0004000C0200103A854B9A4200D954
:10185C00EEE02368D8600020CFE0032B30D10533B5
:10186C00CEE77C4B596D0C230B40082B2AD005D8A6
:10187C00002B29D0042BC3D01023C1E70C2B25D16E
:10188C00043BBDE7734B5B6DC02109010B4080210C
:10189C0009018B4220D007D8002B1FD08021C90012
:1018AC008B421DD10423ABE7C02109018B4219D116
:1018BC000823A5E70223A3E70023A1E710239FE752
:1018CC0010239DE702239BE7002399E7102397E75A
:1018DC00002395E7002393E7022391E700238FE78A
:1018EC0010238DE710238BE7042B43D034D8002B27
:1018FC0039D0022B2ED1584D636A5B00574A9F5A40
:10190C0039002800FEF7F8FB666873009B198342C8
:10191C0000D985E03303834200D283E03A000023F0
:10192C0028000021FEF75EFD050E0B022B43020280
:10193C00700800218018594132000023FEF752FD37
:10194C00484BC218484B9A4200D96DE02368D860C6
:10195C00002052E0012050E0082B02D180252D02FE
:10196C00CAE7012049E0FFF7C9FD0500002DC3D1EE
:10197C00002042E0FFF79AFC0500F7E7042B31D07A
:10198C0026D8002B28D0022B20D13348636A5B0069
:10199C00324A995AFEF7B0FB400063685B08C018E6
:1019AC006168FEF7A9FB83B20004000C010010393A
:1019BC002B4A91423AD80F2293431A00400807232E
:1019CC00184010432368D860002016E0012014E072
:1019DC00082BDBD0012010E0FFF790FD0028D5D1BB
:1019EC0000200AE0FFF762FCF8E7012005E0082B75
:1019FC0002D18020000218E7012001236A22A352A1
:101A0C00023AA352002323676367F8BDFFF776FD04
:101A1C00002800D009E70020EFE7FFF747FCF7E7C5
:101A2C000120EAE70120E8E70120E6E70120E4E7EE
:101A3C000120E2E7F369FFCFFFCFFFFF00800040FA
:101A4C00FFF4FF1100380140004400400048004002
:101A5C00004C0040001002400024F4005029000803
:101A6C00EFFF000000FDFFFFFFFC0F00836ADB07A8
:101A7C0006D5026853682C490B40C16A0B4353606E
:101A8C00836A9B0706D50268536828490B40016B93
:101A9C000B435360836A5B0706D50268536824497D
:101AAC000B40416B0B435360836A1B0706D50268DE
:101ABC00536820490B40816B0B435360836ADB06F0
:101ACC0006D5026893681C490B40C16B0B439360AD
:101ADC00836A9B0606D50268936818490B40016C13
:101AEC000B439360836A5B060BD5026853681449F9
:101AFC000B40416C0B43536080235B03426C9A4256
:101B0C000AD0836A1B0606D5026853680D490B4040
:101B1C00C16C0B4353607047026853680A490B4011
:101B2C00816C0B435360ECE7FFFFFDFFFFFFFEFFF3
:101B3C00FFFFFBFFFF7FFFFFFFEFFFFFFFDFFFFF5D
:101B4C00FFFFEFFFFFFFF7FFFFFF9FFFF8B5CE464C
:101B5C00474680B506000D0017009946089B98462D
:101B6C003368DC692C40641B63425C41BC4241D14C
:101B7C0043460133F4D0FEF731FF4B46C01A4045C3
:101B8C0023D84346002B20D033681A685207E7D578
:101B9C00DA691205E4D5802212011A6232681368E0
:101BAC0017490B40136032689368A331FF318B43A4
:101BBC00936020238422B3500432B3500432B350C8
:101BCC0060330022F254032015E0326813680C498C
:101BDC000B40136032689368A331FF318B439360E1
:101BEC0020238422B3500432B35060330022F254C9
:101BFC00032000E00020C0BCB946B046F8BDC0468A
:101C0C005FFEFFFF30B583B004008C230022C2506E
:101C1C00FEF7E4FE050023681B681B070FD423683E
:101C2C001B685B0718D420238422A3500432A350D2
:101C3C000023E366083AA354002003B030BD802192
:101C4C000C4B00930300002289032000FFF77EFF5A
:101C5C000028E4D00320F0E78021064B00932B00F2
:101C6C000022C9032000FFF771FF0028DBD00320FE
:101C7C00E3E7C046FFFFFF0110B5041E30D08423FC
:101C8C00C358002B22D084232422E25022681368EC
:101C9C0001218B4313602000FFF768FD012814D04D
:101CAC00A36A002B18D1226853680E490B4053606D
:101CBC00226893682A218B43936022681368293920
:101CCC000B4313602000FFF79DFF10BD80330022F3
:101CDC00C254FEF705FED6E72000FFF7C7FEE2E789
:101CEC000120F2E7FFB7FFFF70B584B0040002AA31
:101CFC00154B03CB03C26A46144B03CB03C2636E72
:101D0C00002B06D101336A22A352023AA35204B02B
:101D1C0070BD226895686D0E07231D409268520FA6
:101D2C00134002AEF05CC0006A46D15CFEF76EFA5E
:101D3C006A23E052705DC0006B46595DFEF766FA8F
:101D4C006823E052E3E7C046E82800086829000849
:101D5C0070B58023C35C012B15D080240126065559
:101D6C00842524234351026813681168B143116020
:101D7C00064A13400022426601680B60202343513F
:101D8C000255002070BD0220FCE7C046FFFFFFDFBC
:101D9C00F8B504000B008022825C012A1BD0802540
:101DAC000120605584262422A251226817681168EC
:101DBC008143116022689168C900C9081943916078
:101DCC002000FFF791FF23681F602023A3510023FD
:101DDC0063550020F8BD0220FCE70000F8B50400B4
:101DEC000B008022825C012A1BD0802501206055CB
:101DFC0084262422A251226817681168814311603D
:101E0C002268916808480140194391602000FFF74F
:101E1C006BFF23681F602023A35100236355002010
:101E2C00F8BD0220FCE7C046FFFFFFF10D488546D8
:101E3C00FEF716FD0C480D490D4A002302E0D4585C
:101E4C00C4500433C4188C42F9D30A4A0A4C0023F8
:101E5C0001E013600432A242FBD300F011F8FEF74C
:101E6C00BDFCFEE700900020000000204C08002084
:101E7C008C2900084C080020A8090020FEE700006F
:101E8C0070B50C4D0C4E761BB61005D0002408CD49
:101E9C0001349847A642FAD100F014FD074D084EC4
:101EAC00761BB61005D0002408CD01349847A64205
:101EBC00FAD170BD8029000880290008802900080B
:101ECC008829000810B5034B0100186800F004F8CD
:101EDC0010BDC0460C000020F0B54E464546DE460F
:101EEC005746E0B50D000B35060083B0162D22D8F1
:101EFC00102900D9B2E000F003FB102502201823B2
:101F0C00CB4FFB181A005C68083A944200D1B5E03C
:101F1C00032362689A431300E268A168CA60916067
:101F2C000122E318596830000A435A6000F0F0FAB5
:101F3C002000083095E007239D4300D58EE0A94290
:101F4C0000D98BE000F0DCFAFC235B009D4200D250
:101F5C00A5E1680A00D18BE0042800D978E1382388
:101F6C009846A80980443930C100B14F79184C68A3
:101F7C000839A1420ED003239C4604E0002ACBDA98
:101F8C00E468A14206D06246636893435A1B0F2A49
:101F9C00F4DD40463A003C690832944200D178E0C6
:101FAC0003236168994389460B00491B0F2900DD07
:101FBC0079E17A613A610029B2DA80229200914586
:101FCC0000D30EE15909DA0801238B40D20079685D
:101FDC00D2190B4391687B60E260A1609460CC6085
:101FEC00012182109140994259D80B4205D103220C
:101FFC009043490004300B42FBD003239846C300A6
:10200C009946B944CC4682466346DC68A44507D160
:10201C002AE1002A00DB33E1E468A44500D123E186
:10202C004246636893435A1B0F2AF2DD0120804617
:10203C00611905436560A068E5680837C560A8604C
:10204C0040461043F960B9604860CF6030008F6043
:10205C00E25000F05DFA2000083002E00C23002072
:10206C00336003B0F0BCBB46B246A946A046F0BDF7
:10207C0080213F2340209846890076E7DC680230B7
:10208C00A34200D044E73A003C690832944200D0A5
:10209C0086E701217B68821091409942A5D90323E0
:1020AC00BC6862689A439146954203D8531B0F2B28
:1020BC0000DD88E023004B445E4A01935E4B93465F
:1020CC001B681268EB18013200D13BE15B4A944665
:1020DC0063441B0B1B0300933000009900F020FAA3
:1020EC0003008046013300D1F8E0019B834200D904
:1020FC00F2E0534B19009A460968009B8C465146F6
:10210C0063440B6001991A00814200D150E15B4697
:10211C001B68013300D155E1434601995B1A9A18AB
:10212C0053461A600723424641461A40019219420F
:10213C0000D111E108239846881A424B009980443B
:10214C0041449B1A5B1A1B051B0D009130001900B2
:10215C009B4600F0E5F9431C00D14FE14346C01A01
:10216C0003005B440093534652461B6801215B44B9
:10217C00136042464046BA60009A0A434260BC4231
:10218C0000D123E14A460F2A00D821E107200C3A5E
:10219C00824360680140052011436160A1184860CA
:1021AC0088600F2A00D934E14246444652682649D9
:1021BC000868984200D20B6024490868984200D302
:1021CC008EE00B608CE0012229001343114365194A
:1021DC0061603000BD606B6000F09AF9200008303F
:1021EC003FE75A0A042A71D9142A00D9C4E0110015
:1021FC005C325B31D20008235B429C46BA18944493
:10220C0063469A6803239846944500D19DE0434663
:10221C0051689943494502D992689445F7D1D368DE
:10222C009C467B686146A260E1608C60D460D7E616
:10223C003804002040080020980800200F100000EF
:10224C006808002008100000900800209408002066
:10225C00142852D9542800D996E06E239846280B9E
:10226C0080446F30C10080E608239B46073BDC446A
:10227C009B46DA4443465246134200D0C4E64CE037
:10228C000122E318596830000A435A60E368A268D7
:10229C00D3609A6000F03CF920000830E1E62B0096
:1022AC00E80808332CE6012360191D43656078614A
:1022BC003861C26082601A004B460A4342603000AB
:1022CC00E15000F025F920000830CAE69A09110007
:1022DC0039323831D2008EE7BC4260D0BC686268BB
:1022EC0003239A43531B954202D80F2B00DD6AE758
:1022FC00300000F00DF90020B3E65B2398468044D3
:10230C005C30C10031E608235B429C46E1444B46FD
:10231C009B6801384B4500D098E043460342F2D10C
:10232C007B688B437B604900994200D9B7E6002952
:10233C0004D1B4E6042294464900E2440B42F9D09D
:10234C0050465CE610330093C6E68910023B8B4086
:10235C0079680B437B6065E7009B300043445B422C
:10236C001B051B0D19009B4600F0DAF8431C00D02E
:10237C00F4E600239B46F6E6542A2BD81A0B1100E0
:10238C006F326E31D20036E7AA235B0098422BD80D
:10239C00DD3B9846E80B80447830C100E5E52C4BDA
:1023AC00009A9A461B689C46534662441A60AEE6F5
:1023BC00090500D0ABE6009ABC684A4401310A43D7
:1023CC006260F4E65B4642461A60ABE64446EEE6D3
:1023DC0041608DE7AA2149008A4224D8DA0B11000A
:1023EC0078327731D20006E71A4B984224D87C23F6
:1023FC009846A80C80447D30C100B6E5009A019B3C
:10240C0094464246083B63449B1A009300239B4628
:10241C00A9E621003000083100F00AF95346BC68E7
:10242C001B686268C3E60B498A420BD89A0C1100F0
:10243C007D327C31D200DEE6FE217E237F20984661
:10244C00890092E5FE227E219200D4E67B686AE741
:10245C006808002054050000F0B5050083074AD039
:10246C00541E002A44D003000322CEB202E00135F0
:10247C00013C3DD301332E701342F8D1032C2FD9DC
:10248C00FF220A40150215432A0415430F2C35D997
:10249C002700103F3F093E01B4461E001A001036BB
:1024AC006644156055609560D5601032B242F8D123
:1024BC000F260C2201373F012640DB193700224240
:1024CC0017D03E1FB608B400A4461A001C1D644465
:1024DC0020C2A242FCD103240136B6009B193C4019
:1024EC00002C05D0C9B21C19197001339C42FBD1C8
:1024FC00F0BD3400F4E714000300BFE72700E0E769
:10250C0010B5024800F076F910BDC04690090020C5
:10251C0010B5024800F070F910BDC04690090020BB
:10252C00002370B5064D040008002B6000F0BCF9C8
:10253C00431C00D070BD2B68002BFBD02360F9E747
:10254C00A4090020034B10B5002B02D0024800F068
:10255C0005F810BD000000007925000810B5010039
:10256C0000230022002000F049F910BD70B5074D82
:10257C00074C641BA41005D0013CA300EB589847F2
:10258C00002CF9D100F0A4F970BDC04688290008D0
:10259C008C290008F8B50C000500FFF7B1FF204F9F
:1025AC00BB685E6803239E431E4B341B9C466444ED
:1025BC00240B013C113324039C4207DB002128002F
:1025CC00FFF7AEFFBB689B19984204D02800FFF7B9
:1025DC009FFF0020F8BD28006142FFF7A1FF431CBC
:1025EC000DD00122BB68361B16435E600E4B2800D3
:1025FC001A68141B1C60FFF78BFF0120EAE700210F
:10260C002800FFF78DFFBA68831A0F2BDEDD074910
:10261C000968401A0449086001210B435360D5E74F
:10262C0038040020EF0F000068080020400800204C
:10263C00F0B5C64605000C0000B500294FD0FFF7D9
:10264C005FFF210008394C68012622000320B243A9
:10265C008F187B688343624898468368BB426BD073
:10266C0043467B6026421ED108239C460C6884445A
:10267C00091B12198C6864454FD0CB68E3609C60D1
:10268C004346FC186468344211D1BB68554C424433
:10269C00A34200D17FE0FC68DC60A36001231343FC
:1026AC004B608A5006E0FC1864683442EDD0164347
:1026BC004E603A6080239B009A4213D25409D3088F
:1026CC000122A2404468DB00224342601818836850
:1026DC00C8608B608160D9602800FFF719FF80BC4F
:1026EC00B846F0BD530A042B3FD894092600393460
:1026FC003836E40004192368083C03279C4243D075
:10270C005868B843904202D99B689C42F8D1DC6867
:10271C00CC608B60A160D960DEE74346F818406856
:10272C00304258D11300B868FA6843441E43C26063
:10273C0090604E60CB50CFE713004344264206D145
:10274C000A68891A8C689B18CA68E2609460012236
:10275C001A434A60244A816012689A42BCD8234BBF
:10276C0028001968FFF716FFB6E7142B07D9542B6E
:10277C001AD8140B26006F346E36E400BAE71E002C
:10278C005C335B36DC00B5E70122B610B24046681C
:10279C0032434260BCE7D9609960CB608B60012307
:1027AC0013434B608A5097E7AA246400A34205D8D0
:1027BC00D40B260078347736E4009BE70C4CA3420C
:1027CC0005D8940C26007D347C36E40092E7FE2478
:1027DC007E26A4008EE7330013434B603A607BE700
:1027EC0038040020400400204408002098080020F1
:1027FC00540500007047C0467047C046F0B5D64639
:10280C004F464646C0B5264F82B006003868924601
:10281C0098468946FFF7EEFF224B1B680193A423D1
:10282C00019A5B00D558002D2ED06C681F2C30DC23
:10283C00002E0FD1631C6B604B460234A400386829
:10284C006351FFF7D9FF002002B0E0BCBA46B14695
:10285C00A846F0BD882251462800A300EB189950D9
:10286C00873AA2408930FF3001681143016084210E
:10287C00404649005850022EDCD12B008D33FF33DB
:10288C0019680A431A60D5E715004D35FF35D55048
:10289C00CBE73868FFF7B0FF01204042D4E7C046D1
:1028AC004808002074290008044A03001068002816
:1028BC0002D0C318136070470148FAE79C08002047
:1028CC00A8090020F8B5C046F8BC08BC9E46704765
:0C28DC00F8B5C046F8BC08BC9E4670472A
:1028E80001010103070100000000000000000000D2
:1028F80000000000000000000000000000000000D0
:1029080000000000000000000100000002000000BC
:10291800030000000400000006000000070000009B
:10292800080000000900000000000000000000008E
:10293800000000000000000001000000020000008C
:10294800030000000400000001000200040006006B
:1029580008000A000C001000200040008000000160
:102968000804020408010101000000001000002012
:08297800B8DAFF7F0100000046
:0829800051250008E5000008E4
:04298800BD00000886
:10298C000024F400010000000400000010000020EE
:10299C0000000000FC02002064030020CC03002097
:1029AC00000000000000000000000000000000001B
:1029BC00000000000000000000000000000000000B
:1029CC0000000000000000000000000000000000FB
:1029DC0000000000000000000000000000000000EB
:1029EC0000000000000000000000000000000000DB
:1029FC0000000000000000000000000000000000CB
:102A0C0000000000000000000000000000000000BA
:102A1C0000000000000000000000000000000000AA
:102A2C00000000000000000000000000000000009A
:102A3C000000000000000000010000000000000089
:102A4C000E33CDAB34126DE6ECDE05000B0000004E
:102A5C00000000000000000000000000000000006A
:102A6C00000000000000000000000000000000005A
:102A7C00000000000000000000000000000000004A
:102A8C00000000000000000000000000000000003A
:102DCC003804002038040020400400204004002077
:102DDC004804002048040020500400205004002027
:102DEC0058040020580400206004002060040020D7
:102DFC006804002068040020700400207004002087
:102E0C007804002078040020800400208004002036
:102E1C0088040020880400209004002090040020E6
:102E2C009804002098040020A0040020A004002096
:102E3C00A8040020A8040020B0040020B004002046
:102E4C00B8040020B8040020C0040020C0040020F6
:102E5C00C8040020C8040020D0040020D0040020A6
:102E6C00D8040020D8040020E0040020E004002056
:102E7C00E8040020E8040020F0040020F004002006
:102E8C00F8040020F80400200005002000050020B4
:102E9C000805002008050020100500201005002062
:102EAC001805002018050020200500202005002012
:102EBC0028050020280500203005002030050020C2
:102ECC003805002038050020400500204005002072
:102EDC004805002048050020500500205005002022
:102EEC0058050020580500206005002060050020D2
:102EFC006805002068050020700500207005002082
:102F0C007805002078050020800500208005002031
:102F1C0088050020880500209005002090050020E1
:102F2C009805002098050020A0050020A005002091
:102F3C00A8050020A8050020B0050020B005002041
:102F4C00B8050020B8050020C0050020C0050020F1
:102F5C00C8050020C8050020D0050020D0050020A1
:102F6C00D8050020D8050020E0050020E005002051
:102F7C00E8050020E8050020F0050020F005002001
:102F8C00F8050020F80500200006002000060020AF
:102F9C00080600200806002010060020100600205D
:102FAC00180600201806002020060020200600200D
:102FBC0028060020280600203006002030060020BD
:102FCC00380600203806002040060020400600206D
:102FDC00480600204806002050060020500600201D
:102FEC0058060020580600206006002060060020CD
:102FFC00680600206806002070060020700600207D
:10300C00780600207806002080060020800600202C
:10301C0088060020880600209006002090060020DC
:10302C009806002098060020A0060020A00600208C
:10303C00A8060020A8060020B0060020B00600203C
:10304C00B8060020B8060020C0060020C0060020EC
:10305C00C8060020C8060020D0060020D00600209C
:10306C00D8060020D8060020E0060020E00600204C
:10307C00E8060020E8060020F0060020F0060020FC
:10308C00F8060020F80600200007002000070020AA
:10309C000807002008070020100700201007002058
:1030AC001807002018070020200700202007002008
:1030BC0028070020280700203007002030070020B8
:1030CC003807002038070020400700204007002068
:1030DC004807002048070020500700205007002018
:1030EC0058070020580700206007002060070020C8
:1030FC006807002068070020700700207007002078
:10310C007807002078070020800700208007002027
:10311C0088070020880700209007002090070020D7
:10312C009807002098070020A0070020A007002087
:10313C00A8070020A8070020B0070020B007002037
:10314C00B8070020B8070020C0070020C0070020E7
:10315C00C8070020C8070020D0070020D007002097
:10316C00D8070020D8070020E0070020E007002047
:10317C00E8070020E8070020F0070020F0070020F7
:10318C00F8070020F80700200008002000080020A5
:10319C000808002008080020100800201008002053
:1031AC001808002018080020200800202008002003
:1031BC0028080020280800203008002030080020B3
:0C31CC00FFFFFFFF000002008009002050
:0400000508001E3998
:00000001FF
